:100000000C9434000C943E000C943E000C943E0082
:100010000C943E000C943E000C943E000C943E0068
:100020000C943E000C943E000C943E000C943E0058
:100030000C943E000C943E000C943E000C943E0048
:100040000C943E000C943E000C943E000C943E0038
:100050000C943E000C943E000C943E000C943E0028
:100060000C943E000C943E0011241FBECFEFD8E04C
:10007000DEBFCDBF0E9440000C945D000C940000D8
:10008000CF93DF9300D000D0CDB7DEB71A821982AC
:1000900084E090E09C838B8329813A818B819C81D1
:1000A000820F931F9A83898380E090E00F900F90D6
:0E00B0000F900F90DF91CF910895F894FFCF3D
:00000001FF
